{
  "_format": "hh3-artifact-1",
  "contractName": "ProductRegistry",
  "sourceName": "contracts/ProductRegistry.sol",
  "abi": [
    {
      "inputs": [],
      "stateMutability": "nonpayable",
      "type": "constructor"
    },
    {
      "inputs": [],
      "name": "EmptyName",
      "type": "error"
    },
    {
      "inputs": [
        {
          "internalType": "uint256",
          "name": "expected",
          "type": "uint256"
        },
        {
          "internalType": "uint256",
          "name": "received",
          "type": "uint256"
        }
      ],
      "name": "IncorrectPayment",
      "type": "error"
    },
    {
      "inputs": [],
      "name": "InvalidPrice",
      "type": "error"
    },
    {
      "inputs": [],
      "name": "Unauthorized",
      "type": "error"
    },
    {
      "inputs": [],
      "name": "WithdrawFailed",
      "type": "error"
    },
    {
      "anonymous": false,
      "inputs": [
        {
          "indexed": true,
          "internalType": "uint256",
          "name": "id",
          "type": "uint256"
        },
        {
          "indexed": false,
          "internalType": "string",
          "name": "name",
          "type": "string"
        },
        {
          "indexed": false,
          "internalType": "uint256",
          "name": "price",
          "type": "uint256"
        },
        {
          "indexed": true,
          "internalType": "address",
          "name": "seller",
          "type": "address"
        }
      ],
      "name": "ProductAdded",
      "type": "event"
    },
    {
      "anonymous": false,
      "inputs": [
        {
          "indexed": true,
          "internalType": "address",
          "name": "by",
          "type": "address"
        },
        {
          "indexed": false,
          "internalType": "uint256",
          "name": "amount",
          "type": "uint256"
        }
      ],
      "name": "Withdrawn",
      "type": "event"
    },
    {
      "inputs": [
        {
          "internalType": "string",
          "name": "name",
          "type": "string"
        },
        {
          "internalType": "uint256",
          "name": "price",
          "type": "uint256"
        }
      ],
      "name": "addProduct",
      "outputs": [
        {
          "internalType": "uint256",
          "name": "id",
          "type": "uint256"
        }
      ],
      "stateMutability": "payable",
      "type": "function"
    },
    {
      "inputs": [
        {
          "internalType": "uint256",
          "name": "id",
          "type": "uint256"
        }
      ],
      "name": "getProduct",
      "outputs": [
        {
          "components": [
            {
              "internalType": "uint256",
              "name": "id",
              "type": "uint256"
            },
            {
              "internalType": "string",
              "name": "name",
              "type": "string"
            },
            {
              "internalType": "uint256",
              "name": "price",
              "type": "uint256"
            },
            {
              "internalType": "address",
              "name": "seller",
              "type": "address"
            }
          ],
          "internalType": "struct ProductRegistry.Product",
          "name": "",
          "type": "tuple"
        }
      ],
      "stateMutability": "view",
      "type": "function"
    },
    {
      "inputs": [],
      "name": "owner",
      "outputs": [
        {
          "internalType": "address",
          "name": "",
          "type": "address"
        }
      ],
      "stateMutability": "view",
      "type": "function"
    },
    {
      "inputs": [],
      "name": "productCount",
      "outputs": [
        {
          "internalType": "uint256",
          "name": "",
          "type": "uint256"
        }
      ],
      "stateMutability": "view",
      "type": "function"
    },
    {
      "inputs": [],
      "name": "withdraw",
      "outputs": [],
      "stateMutability": "nonpayable",
      "type": "function"
    }
  ],
  "bytecode": "0x60a0604052348015600e575f5ffd5b50336080526080516107726100385f395f818160740152818161011f015261016d01526107725ff3fe608060405260043610610049575f3560e01c80633ccfd60b1461004d5780638da5cb5b14610063578063b15247d9146100b3578063b9db15b4146100d4578063e0f6ef8714610100575b5f5ffd5b348015610058575f5ffd5b50610061610114565b005b34801561006e575f5ffd5b506100967f000000000000000000000000000000000000000000000000000000000000000081565b6040516001600160a01b0390911681526020015b60405180910390f35b6100c66100c13660046104a0565b610226565b6040519081526020016100aa565b3480156100df575f5ffd5b506100f36100ee366004610512565b61039b565b6040516100aa9190610529565b34801561010b575f5ffd5b506100c65f5481565b336001600160a01b037f0000000000000000000000000000000000000000000000000000000000000000161461015c576040516282b42960e81b815260040160405180910390fd5b60405147905f906001600160a01b037f0000000000000000000000000000000000000000000000000000000000000000169083908381818185875af1925050503d805f81146101c6576040519150601f19603f3d011682016040523d82523d5f602084013e6101cb565b606091505b50509050806101ed57604051631d42c86760e21b815260040160405180910390fd5b60405182815233907f7084f5476618d8e60b11ef0d7d3f06914655adb8793e28ff7f018d4c76d505d59060200160405180910390a25050565b5f82810361024757604051632ef1310560e01b815260040160405180910390fd5b815f036102665760405162bfc92160e01b815260040160405180910390fd5b81341461029357604051630d35e92160e01b81526004810183905234602482015260440160405180910390fd5b5f5f81546102a09061058e565b9190508190559050604051806080016040528082815260200185858080601f0160208091040260200160405190810160405280939291908181526020018383808284375f92018290525093855250505060208083018690523360409384015284825260018082529290912083518155908301519091820190610322908261064a565b506040828101516002830155606090920151600390910180546001600160a01b0319166001600160a01b0390921691909117905551339082907f52402cafb2ecec722b103e8f203f83362148c168659dc96678c2c6850d12dd9f9061038c90889088908890610705565b60405180910390a39392505050565b6103cc60405180608001604052805f8152602001606081526020015f81526020015f6001600160a01b031681525090565b5f82815260016020818152604092839020835160808101909452805484529182018054918401916103fc906105c6565b80601f0160208091040260200160405190810160405280929190818152602001828054610428906105c6565b80156104735780601f1061044a57610100808354040283529160200191610473565b820191905f5260205f20905b81548152906001019060200180831161045657829003601f168201915b5050509183525050600282015460208201526003909101546001600160a01b031660409091015292915050565b5f5f5f604084860312156104b2575f5ffd5b833567ffffffffffffffff8111156104c8575f5ffd5b8401601f810186136104d8575f5ffd5b803567ffffffffffffffff8111156104ee575f5ffd5b8660208284010111156104ff575f5ffd5b6020918201979096509401359392505050565b5f60208284031215610522575f5ffd5b5035919050565b60208152815160208201525f60208301516080604084015280518060a0850152806020830160c086015e5f60c082860101526040850151606085015260018060a01b03606086015116608085015260c0601f19601f8301168501019250505092915050565b5f600182016105ab57634e487b7160e01b5f52601160045260245ffd5b5060010190565b634e487b7160e01b5f52604160045260245ffd5b600181811c908216806105da57607f821691505b6020821081036105f857634e487b7160e01b5f52602260045260245ffd5b50919050565b601f82111561064557805f5260205f20601f840160051c810160208510156106235750805b601f840160051c820191505b81811015610642575f815560010161062f565b50505b505050565b815167ffffffffffffffff811115610664576106646105b2565b6106788161067284546105c6565b846105fe565b6020601f8211600181146106aa575f83156106935750848201515b5f19600385901b1c1916600184901b178455610642565b5f84815260208120601f198516915b828110156106d957878501518255602094850194600190920191016106b9565b50848210156106f657868401515f19600387901b60f8161c191681555b50505050600190811b01905550565b60408152826040820152828460608301375f606084830101525f6060601f19601f860116830101905082602083015294935050505056fea2646970667358221220869341468131d7c87a872cf75d36d1e784a067c6dbfabd1a2c893d503133162564736f6c634300081c0033",
  "linkReferences": {},
  "deployedLinkReferences": {},
  "immutableReferences": {
    "26": [
      {
        "length": 32,
        "start": 116
      },
      {
        "length": 32,
        "start": 287
      },
      {
        "length": 32,
        "start": 365
      }
    ]
  },
  "inputSourceName": "project/contracts/ProductRegistry.sol",
  "buildInfoId": "solc-0_8_28-5ccb381ecbafc701b9d21b8f1998edf269494d0c"
}